:100000006F003042000000004A0100004C01000077
:1000100000000000000000000000000000000000E0
:1000200000000000000000000000000000000000D0
:10003000200C000000000000200C00000000000068
:10004000200C0000200C0000200C0000200C000000
:10005000D4050000200C0000200C0000200C000043
:10006000200C0000200C0000200C0000200C0000E0
:10007000200C0000200C0000200C0000200C0000D0
:10008000200C0000200C0000200C0000200C0000C0
:10009000200C0000200C00004E0A000000000000B0
:1000A000511126C022C206C4828282441244A24058
:1000B000310182802A86014593F6150091C232955E
:1000C00085810606F5F9828000000000634E050276
:1000D00063C305042E86AA857D5515C285466378BF
:1000E000B6006356C00006068606E36CB6FE014500
:1000F00063E4C500918D558D85820582F5FA828075
:100100008682C93F2E8582823305A04063D70500D1
:10011000B305B040C1B7B305B0408682653F330533
:10012000A0408282868263C70500634905005D376F
:100130002E858282B305B040E35B05FE3305A04007
:10014000513F3305B0408282000001A0B707EFBEE7
:1001500037E700E0938707083CC701A0EFF25FF4A0
:100160004111B70700202A84231301009387070059
:100170000147014681461943B355E44085898A23E6
:10018000A9CDC98E05078907E31867FE91478D44FD
:100190004C00371501403EC636C0708226C4EF00C1
:1001A000703C824641474C003715014019807482EB
:1001B00026C43AC60588EF00F03A91470DC085473E
:1001C00041477C8226C43AC6371501404C001305CE
:1001D0000540EF0030394101C9BD498E65B705477B
:1001E000788226C43EC6CDB7EFF29FEB611102C202
:1001F0007D15914763E1A7028967938787A30A0565
:100200003E951C418A058287B70700209387070126
:10021000BE959C413EC240001E2013D5870029CDCB
:1002200093F4F70FB1C81D3FB707002001471383B0
:100230000700931617009A968E2233D6E440058A5B
:10024000371501403AC0EF00B0390247B707002028
:100250009946050713830700E31DD7FC13D66400F6
:100260003715014013050540058A8545EF005037D5
:100270001305401FEF10E01209043C00E39E87F8CD
:10028000210125B5B70700209387070651B7B707A7
:10029000002093870709ADBFB70700209387870326
:1002A00085BFB7070020938787089DB7EFF25FDF10
:1002B00061112E84A9452AC0313D9374F50F024780
:1002C0001395240026950605098FA94522853AC273
:1002D00011359377F50F93952700BE9586050D8C04
:1002E0000545A6853EC0093712470945BA85ED3D4B
:1002F00082470D45BE85CD3DA2851145F5352101CD
:100300006DB3EFF2FFD92E8401C581451545E93D56
:1003100001C485451545C93D49BBEFF27FD811653C
:10032000111185451305050202C002C202C402C6AE
:1003300002C802CA02CCEF005066930700027C801C
:10034000371401408D473EC28A85E14713050440BA
:100350003EC4EF003021930700047C808A859147DA
:10036000130504403EC4EF00F01FF167374401401D
:10037000938707203EC66C00B7070C001305048066
:100380003ECA02C8231C0100EF00B06E854513056C
:100390000480EF00D07A710109BBEFF27FD03745BE
:1003A00001409305000213050580EF00B07B25C5D1
:1003B00003A78180AD47138481809384C18063D279
:1003C000E702372500009385C180130545A6EF108D
:1003D00080642320040023A0040023A2040023A49B
:1003E00004003745014013050580EF0030771C40BD
:1003F00062056185BE9488A093073007631AF500F3
:10040000E1472947B54659469305F00279457924D5
:100410001C4085071CC051B9EFF29FC81301C1FDF4
:100420000545EF00D045EF00E078EF0050747165AE
:1004300013050520EF00907ACD3599239307F00935
:100440008D4441442C00371501407C842315010064
:1004500026C622C8EF00101137170140B147130517
:1004600007407C842C00930780043EC826C6EF001A
:10047000700F89450D4502CA02CC02CE02D002C0DF
:1004800002C2EF00D0229147B1463ECA48088547D4
:1004900036CE3ED002CCEF00D0038D450D45EF00A7
:1004A00010212146B1468547480832CA36CE3ED093
:1004B00002CCEF001002D1467480854789460A8538
:1004C00054813EC2EF00103C371701402C00130549
:1004D0000740608426C622C8EF00D0087D3D938780
:1004E0000182A8238C3393849181C93393878181BE
:1004F00088208C2313849181293594209384018250
:1005000093F6F60F93878181C5CA942393F6F60F6D
:1005100099CA371501400146C1451305054023809E
:100520000700EF00F00BAC20903083C60182372526
:1005300000001305C5A4EF10004EB70700209387F5
:10054000C70BB4209023631ED60094309C33639A6B
:10055000D700371501400546C14513050540EF009A
:100560003008B70700209387070CB420902363104E
:10057000D60298309C33639CE70037150140014652
:10058000C14513050540EF00B005230004003707FF
:100590000020130707101C2393F7F70FA1D3B70709
:1005A0000020938747109443FD1694C39C43E39720
:1005B00007F2230007001DB79C23054693F7F70FAA
:1005C00091E3014637150140C14513050540EF0091
:1005D000300175BF1145EF0060760DCDB7070020E3
:1005E00093870710982311451377F70F39E3138783
:1005F00091811423114593C6160014A3054798A3AF
:10060000B707002003A7870BB707002023A2E71036
:10061000EF00A0742145EF00607211CDB7070020F4
:10062000138707101823938707101377F70F11C745
:100630002145EF0080727300203003C7918113774A
:10064000F70F19E713878181142393C6160014A3AB
:10065000054798A3B707002003A7870BB70700201B
:1006600023A2E710F1B79357450013972700BA97D5
:1006700086073D893E951375F50F8280EFF25FA2E4
:10068000A945AA84813C1375F50F13144500A945AB
:100690002685BD34418D1375F50F01BCEFF25FA0C7
:1006A0003111375400403EC8AA842EC032C236C42D
:1006B0003AC6930704403E85B7050200EF001019C3
:1006C000B7570040938707407DF5130504408545E3
:1006D00037040300EF00700F0504B757004013857F
:1006E0000740A285EF003015B75700407DD5014681
:1006F0009305000D1385074037040700EF009012A3
:1007000013042408B757004013850740A285EF0063
:100710009012B75700407DD5138507408145EF0003
:10072000B00FB70707009387470837540040BE85CE
:1007300013050440EF003010B70707009387470800
:100740006DD52685253FAA85B7040700130504400B
:10075000EF00900C9384440837540040A68513059D
:100760000440EF00500D6DD90245B7040700938493
:1007700044082937AA8513050440EF00F0093754CF
:100780000040A68513050440EF00F00A6DD912451C
:10079000F535AA851305044037040700EF00D0079C
:1007A00013044408B7540040A28513850440EF00A9
:1007B00090086DD9138504408545B7040700EF0004
:1007C000B0059384440837540040A68513050440BF
:1007D000EF0070066DD92245B704070093844408E2
:1007E000713DAA8513050440EF0010033754004003
:1007F000A68513050440EF0010046DD93245B704F7
:100800000700938444089D3DAA8513050440EF002A
:10081000B00037540040A68513050440EF00B00136
:100820006DD94245A13DAA85130504403704070050
:10083000EF00807E13044408B7540040A28513855E
:100840000440EF00407F6DD9854513850440EF00DB
:10085000607951016FF07F85EFF29F84375400403B
:10086000711193040440B70502002685EF00007E55
:100870007DF913050440854537040300EF00E0745B
:100880000504B7540040A28513850440EF00A07A08
:100890006DD901469305000D138504403704070008
:1008A000EF00407813042408B7540040A285138554
:1008B0000440EF0040786DD981451385044037042A
:1008C0000700EF00607513044408B7540040A28588
:1008D00013850440EF0020766DD9854513850440CB
:1008E00037040300DD250504B7540040A2851385B5
:1008F0000440EF0040746DD905469305000D138543
:10090000044037040300EF00E0710904375500404C
:10091000A28513050540EF0000726DD9938701820F
:1009200081443EC0370703001307070437540040D3
:10093000BA85130504400127B7070300138707048E
:1009400075D513050440D92D393B8247338797006D
:1009500008A385041D47639DE400130504408545F5
:100960005125854513050440592D11016FF0EFF312
:100970001947E399E4FA81451305044049255DB719
:10098000EFF20FF279718545454502CA02CC02CEDD
:1009900002D002D202D402D6EF00300085453705DE
:1009A0002000EF0070013705401085450905352905
:1009B00093070006FC82F1473ECE4C088D47371561
:1009C00001403ECC4526E1679387076A3ED0B707D2
:1009D000FFBF375400403ED2B70700043ED40C108E
:1009E0009167130504402316F102DD21130504402D
:1009F0008545C1238545054502C402C6231801006B
:100A000002C002C2EF00407BB1679387F7B73EC4D4
:100A10002C009307301F370500403EC6EF00A07B37
:100A20000546854537050040EF00500193076002F9
:100A30007C8085475C810A8585473EC2A125854526
:100A400037050040EF00007E45616FF00FE68545F9
:100A500037050040EF00A07F15C1FD3B9387C181A2
:100A60009843050798C3944329476394E60023A05D
:100A70000700854537050040EF00E07E7300203019
:100A8000EFF20FE2371402401C403707FFF8611104
:100A900093E717001CC05C404145F98F5CC01C40C7
:100AA0003707F7FE7D17F98F1CC01C403707FCFF86
:100AB0007D17F98F1CC05C4041777D17F98F5CC0B2
:100AC000B7079F001CC405251C4C3706020093E79E
:100AD00007021CCCB717014003A7074093860740C5
:100AE0001377F7F023A0E74003A707401367070831
:100AF00023A0E74089479CCA02C002C21C4C3707AA
:100B00000140A16693E717001CCC5C43D58F5CC302
:100B10001C404167B7160240D98F1CC009679C4230
:100B2000F18F3EC2824785073EC0924781E78247E8
:100B3000E397E7FEB71702409C431397E70063591A
:100B4000070685473EC2124785476310F706B72759
:100B500002409843C176FD16719B98C39843136772
:100B6000170098C3B7170240D843D8C3D843758F2E
:100B7000D8C3D843C166558FD8C39843B706000180
:100B8000558F98C3984393166700E3DD06FED8435C
:100B9000B7160240719BD8C3D84313672700D8C348
:100BA0002147DC42B18BE39EE7FE21016FF0EFCFDE
:100BB00002C251BFEFF2CFCE371702405C43370479
:100BC00000209146B18B1304440D6385D700A146E4
:100BD0006382D704B7376E01938707601CC0B716CE
:100BE0000240DC420840918313F7F700B70700206A
:100BF0009387470CBA978C23DC4293F5F50F93F754
:100C000007083357B50081E7EFF0CFCC2A8718C02B
:100C10006FF0AFC95C43B777DC02938707C07DBF35
:100C200001A0970100209381E1CD138101F013050C
:100C3000000A97F5FF1F9385E53C17F6FF1F130683
:100C4000663C63FAC5008322050023A05500110508
:100C50009105E3EAC5FE171500001305A5E197F518
:100C6000FF1F9385253A17F6FF1F1306A64963FA5F
:100C7000C5008322050023A0550011059105E3EA74
:100C8000C5FE17F5FF1F1305E547938501836377BD
:100C9000B500232005001105E36DB5FEB722000065
:100CA00093820288739002308D427390428097F253
:100CB000FFFF9382223593E2320073905230EFF0BF
:100CC0003FDC97F2FFFF93826275739012347300DA
:100CD00020305841032305004C4537060140930757
:100CE00006403E979346F3FFB1C583250640F58D38
:100CF0002320B640D043F18ED4C31443B3E666003C
:100D000014C3184190479346F7FF758E90C7D0479C
:100D1000F18ED4C7144541466399C6009447D98ED5
:100D200094C7D447558FD8C78280B6979443558FC0
:100D300098C382801C43F58F1CC38280B707014093
:100D40001387074083A70740584B698F09C77D8DDC
:100D50003335A000828001458280B707014023AA75
:100D6000A7408280944593F7060193F2F60081C76D
:100D7000DC41B3E2F20083D3050093F7F30FA5C380
:100D800003230500611122C226C08147130480029B
:100D90009304800405473316F70033F7C30063124A
:100DA000E602939527003D473317B7001347F7FF37
:100DB00033736700B395B20033E36500639D86002B
:100DC00050C985072147E397E7FC124423206500BB
:100DD000824421018280E39696FE10C9DDB78280AD
:100DE00019C20CC982804CC9828037030140032795
:100DF00043009317350063D00702B707C0FFF5170C
:100E0000F98F37070007D98FD9CD370700F07D1745
:100E1000798DC98F49A8635D0500B707E0FFED171D
:100E2000F98F37070007D98FBDCD06050581D5B7E6
:100E3000B7073000931605013376F500C1826313BE
:100E4000F602370600F97D16B377C7000327430083
:100E5000798E2322C300A1C955811317450033950C
:100E6000E60045BF9317B50063D407029357050109
:100E700013F6F7008D47B397C70093C7F7FFF98FB5
:100E800037070007D98F85C1135755011207C1BF16
:100E9000558112053395A6009347F5FFF98F370763
:100EA0000007D98FBDF5370701405CC38280370743
:100EB0000140144786058D47B397B70093C7F7FFE6
:100EC000F58F1CC71C47B315B500DD8D0CC782809C
:100ED000EFF20F9D111146212A8428002EC0292CE3
:100EE000C246C204C18093F404FCB7450F00938549
:100EF00005243685C20436C2C180EFF0AF9D458D12
:100F0000420541814AA01E209246C207C183F99B37
:100F1000C207C1831EA082479043E1679387076A97
:100F20009315160063E6C7043685EFF0AF9AAA87DB
:100F30004205418191466373D5009147139507019E
:100F400041814AAC1E20024793E717001EA01E20D5
:100F500056233227C207C183D18E93F757BFD58F4F
:100F60001EA016275E27D58F1EA471016FF0EF9388
:100F70008247EA23B167FD176310F502B295368503
:100F8000EFF04F95420541819317450199E31365B1
:100F90001500A1675D8D75B7B387C5008E07B38552
:100FA000C7003685EFF00F934205418191675D8D53
:100FB000E1BF1E2189C593E717001EA18280C207E9
:100FC000C183F99BC207C183CDBF1E2189C593E7A9
:100FD00007101EA18280C207C18393F7F7EFC207F3
:100FE000C183C5BF1E2189C593E707201EA182804A
:100FF000C207C18393F7F7DFC207C183C5BF1E21B4
:1010000089C593E707401EA18280C207C18393F779
:10101000F7BFC207C183C5BF0EA982800A29137515
:10102000F50F828093F7E50F19C293E71500C20709
:10103000C1831EA982805E290A2D42055D8D6D8DBA
:10104000220521810D8D133515008280611102C0AA
:1010500002C293D7C5012AC23EC08247A205A18120
:1010600099CB9247D1073EC29247884321016D8DAB
:101070003335A00082809247C181E107EDB723A4F8
:10108000A182828083A68182854718216390F6021F
:101090001C31639CD7023C219A0793E707F8B7E617
:1010A00000E093F7F70FBA962380F64085469357F2
:1010B00057003397E600544189CE938707048A0787
:1010C000B7E600E0B69798C38280EDF33C219A071B
:1010D000F9B793870706B7E600E08A07B69798C383
:1010E0000F1000008280371702401C430E0593F753
:1010F00077F05D8D08C38280EFE29FFA37170240D8
:101100005C4391462A84B18B6385D700A1466380F6
:10111000D708B7376E01938707601CC0B716024027
:10112000DC42918313F7F700B70700209387C70EBF
:10113000BA978C23DC42184093F5F50F93F7070814
:101140003355B70081E73A85EFE0DFF848C008C4BF
:1011500048C4B7170240DC438D46AD83FD8B13D7DF
:1011600037008A07F18BD98F13F6370113F7370051
:1011700063F4C600138747FFB70700209387870DE6
:10118000BA978C23EFE01FF508C86FE01FF25C43AD
:10119000B777DC02938707C049B799C53717024074
:1011A0001C4F5D8D08CF8280B7170240984F1345C2
:1011B000F5FF798D88CF828099C5371702405C4F43
:1011C0005D8D48CF8280B7170240D84F1345F5FF99
:1011D000798DC8CF82801E2137370140130707C0A1
:1011E000C207C1836306E500370700406316E500C8
:1011F000BA2193F7F7F8D98FFA2193F7F7CFC207FF
:10120000C183D98F1EA1DE215EB59E211EB5B737E1
:101210000140938707C06314F5009C251EB98547DC
:101220005EA982801E2189C593E717001EA18280D6
:10123000C207C183F99BC207C183CDBF5E2501C62A
:10124000DD8D4EA5828093C5F5FFFD8DDDBF1E2986
:101250004A25ED8F4205418189C76D8D3335A00048
:1012600082800145828093C5F5FFC205C1810EA928
:101270008280EFE2FFE21629F577FD17F58FF62160
:10128000DA252111D58F1EA95625FD779387379F23
:10129000F58FD6212A842EC0D58F9625D58FB625D9
:1012A000D58F5EA55E29C207C18393F7F7CF5D8F07
:1012B0005AA948009135B747014093870780824576
:1012C0006312F406C2475A24139517003E9542074D
:1012D0000E0541873E958C41635807048605EFE073
:1012E0007FDF930540062AC0EFE0DFDE82479314DC
:1012F0004500930540063E85EFE09FE05E24C2076F
:10130000C18763D507020E05930540061305250323
:10131000EFE05FDC1D89C98CC204C18006A46101B5
:101320006FE0BFD8B24745B78A0555BF1205930590
:10133000400613052503EFE0FFD93D89E9BF91C5BC
:101340005E250967D98F5EA582805A25F977FD173A
:10135000F98FD5BF93F5F51F4EA182804A211375F1
:10136000F51F82800A216D8D3335A0008280EFE267
:101370003FD3B707002003A5470DB7157A00938523
:101380000520EFE03FD51375F50F2387A182931752
:101390005500898F8A073E950E052396A1826FE03E
:1013A000DFD0EFE2FFCF37F400E05C40AA85F99B85
:1013B0005CC003C5E182EFE0FFCF08C8232404002E
:1013C0001C4093E717001CC0B7F700E0D843058B1B
:1013D00075DF9843799B98C36FE03FCDEFE25FCC18
:1013E0002A84116511118545130505027D33930784
:1013F00000027C80371501408D473EC28A85E14757
:10140000130505403EC4EFF0FF9522C63744014066
:10141000B70708006C00130504803ECA02C8231CED
:101420000100813D854513050480113F71016FE086
:10143000DFC7EFE2FFC67111AE840144635DC402F1
:10144000B7470140138707803A859305000432C0EF
:10145000113FB747014013870780024675D5338790
:10146000840083050700138507800504C205C18138
:10147000D5350246E1B7328511016FE01FC3411136
:1014800006C62EC00DCD1841AA8705C358417D550B
:1014900011CB8546631BD70098472300070023A282
:1014A00007000545B240410182809847824614A357
:1014B0009847050798C7D8437D17D8C3DDB70546B9
:1014C0008A85853FF9BF011122CC2EC206CE26CADD
:1014D0002A84814793050002634506029245BE9522
:1014E000838505008DE563D8C70263D4E702198EB2
:1014F0001305000293F526002AC089C501E793056C
:1015000000032EC0858A814495EAB2840DA0850728
:10151000F1B71D8EF1BF0146E1BF824522853AC871
:1015200032C63EC4A93FA24732464247FD14E346B5
:1015300090FEB284635306008144058E63C7E702C0
:10154000A68792463387974036978305070095ED27
:10155000B28463449004635306000146F24062443F
:10156000D2443305F600056182801D8FBA8793054A
:101570000003228532C83EC63AC41137B24722471B
:101580004246FD17EDF7BA9465BF228532C63EC4C8
:10159000FD35A247324685076DB78245228532C4A4
:1015A0003EC2F13DFD142246924765B7397106DE11
:1015B00022DC26DA3EC232833A8689ED92469307D0
:1015C000000301476C08FC86FD3DF2506254D25482
:1015D00021618280AA843684AE8791CA294701445A
:1015E0006317E30063D50500B307B04005448646A2
:1015F000A309010213073103938666FC36C49A855A
:101600003E8532CA3AC81AC63EC0EFE07FAFA54653
:10161000824732434247524663D4A600A2463695DB
:10162000130505039306F7FFA30FA7FE9A853E85D2
:1016300032CC3ACA1AC83EC636C0EFE0BFA9B2479C
:1016400042435247624663F9670401CC29CA924774
:10165000898BB1C79305D002268532C40D35224649
:101660007D169247918B95C306479307100632C4A7
:10167000930500032685631EF70211359305800745
:101680002685F53B2246090479161647924682457F
:101690002685153D229515BFAA8702478DB782463C
:1016A0009307D0020144A38FF6FE9307E7FF3EC0E5
:1016B0004DBFF13393058005E1B7014582800145B7
:1016C0008280130181FD22D026CE06D22AC4AE82AA
:1016D000328402C681448385020089EDA24781C716
:1016E00081453E85693B925002542685F2441301A0
:1016F00081028280930750026388F500224516C854
:101700008504B53BC24239A88387120013871200B3
:10171000639CB7002245930550023AC88D33424777
:101720008504BA82850245BFD5DB9306B002638982
:10173000D70463C8F600930630026386D704814756
:1017400005A09306D002638AD70093060003E398AE
:10175000D7FE13872200894721A0138722008547DF
:10176000830607001306B0026383C6046341D602F2
:1017700013063002638BC602BA820145A54681A0DA
:10178000138722006DBF138722009147D1BF130634
:10179000D0026389C60013060003E39FC6FC93E7EB
:1017A000270031A005078547C1BF93E7470005071C
:1017B000E1B713162500329506053A958502038692
:1017C0000200130706FD9375F70FE3F4B6FE130747
:1017D000E0029946631EE60085028146A545038620
:1017E0000200130606FD1377F60F63F5E50236C611
:1017F000038702001306A006630DC70A6343E602CF
:101800001306C0046307C70A13068006630CC708E3
:1018100081452DA813972600BA968606B2968502B2
:101820007DBF130640076306C7081306A0076302BF
:10183000C7081306C0068145631AC7000386120055
:101840008D456314E60085029145850203860200FA
:10185000930300061307100663C4C30013071004A4
:101860009303700663C4C30693035006635476184B
:101870009303700463C1C30493055004635CB616FC
:1018800013073004E310E6EA18409303440016CA35
:10189000230CE1001EC8A30C01000147BE862A8666
:1018A0002C0849A8038612008145E311E6FA890253
:1018B00071BF8502B1BF93063006E307D6FC63CF44
:1018C000C606930680056303D602A9BD93063007BA
:1018D0006304D60463CBC6029306F0066303D60EF8
:1018E0009306000793E74700E31ED6E29146639014
:1018F000D50C930384000C40504016CA3AC23EC037
:101900001EC8AA870147C14681A8930650076309EC
:10191000D6069306800745BF1840B72600009303FC
:101920004400938586A611C3BA85324716CA1EC8DD
:10193000BE862A862245EFF01FB90DA0914663941A
:10194000D502930384000C40504016CA3AC23EC0F0
:101950001EC8AA870547A94622458533C243AA94D3
:101960001E84D242C1B3B2460C4016C836C23AC039
:1019700011042A878546294622450D39AA9459B370
:101980009146639DD500930384000C40504016CAD5
:101990003AC23EC01EC8AA87014775BFB2460C4076
:1019A00016C836C23AC011042A878146E9B7B24642
:1019B00016C80C40414636C23AC011042A878146F7
:1019C00065BF9146639ED500930384000C40504050
:1019D00016CA3AC23EC01EC8AA870147A146ADBF7B
:1019E000B2460C4016C836C23AC011042A87814656
:1019F000214659B70C401306840040403AC22A875A
:101A0000224532C83EC02286B687A94616CA453945
:101A1000AA944244B9B71301C1FD2EC832CAAA859F
:101A20001008014506C636CC3ACE3ED032C05139F8
:101A3000B2401301410282800802000084020000CB
:101A40008E02000098020000A202000054696D6539
:101A50003A20253032643A253032643A25303264F7
:101A60000D0A000025730000286E756C6C290000BB
:101A700001000200040008001000800000000000C7
:101A8000FE7F00000C0D0000363704061E1F040602
:101A90004C4D04065A5B04067A7B04060E0F0000C8
:101AA0007E7F04064E4F0406047C08384C34000048
:101AB000045C2858047C084804340868046C0868EE
:101AC000046C0878043C0000047C0878043C086836
:101AD000017F0000730D000001370206011F02069E
:101AE000014D0206015B0206017B0206010F0000A8
:101AF000017F0206014F0206080A000002220000D0
:101B0000787C307C30340000585C5058787C4048F9
:101B100030346068686C6068686C7078383C0000CD
:101B2000787C7078383C6068C8000000052D0000A3
:101B30000532000001020304050607080102030440
:101B400005060708006CDC020204060804080C10F5
:101B5000081018201020304020406080010203044B
:101B60000506070801020304050607080000000037
:00000001FF
